:100000004D424E014D3448300106040001002200EB
:100010006000000000C000000000000000000000C0
:100020000000EEEE000000000000000000000000F4
:1000300001000106000000000000000000000000B8
:100040000200140100002D000000000000B40000B8
:10005000030014012D00300000B40000000C00006B
:10006000001C00208D0100000000000000000000C6
:100070000000000000000000000000000000000080
:100080000000000000000000000000000000000070
:10009000000000000000000000000000550000000B
:1000A000810000009D000000590000006D0000006C
:1000B00000000000FEE70000034B01225A70A0235D
:1000C0000022DB051A7070472C0B0020034B012225
:1000D0009A70A0230022DB059A7070472C0B002039
:1000E00008B5044B01221A70034B0022DA7700F0A6
:1000F00095FD08BD2C0B00200800005038B5802568
:10010000ED052B79DBB2002B0CD130490B604B6035
:100110002B89081C9BB28B608A680C30103107F069
:10012000A1FE47E0012B0DD1284BD968002941D011
:100130005A68186982423DDA5A68501C58602B7A16
:100140008B5437E0022B30D1204CE368002B2AD0AF
:10015000226821698A420CDA22689B5C1BBAEB6038
:10016000A3682068C01880B207F0D8FE2368013366
:1001700017E0A2682368201C211CD2180C30103113
:1001800007F070FEE368002B0DD0A16822688A1882
:10019000A2601B781BBAEB60A06880B207F0BEFEBD
:1001A0000123236006E0EB6004E0032B02D1074B40
:1001B00000225A60C0468023DB0501221A70C04627
:1001C00002221A7000221A7038BDC0461C0400209A
:1001D00080230222DB05FF321A600421024AFF312C
:1001E000118000221A70704706000040F8B5A02365
:1001F000DB059B684A4A1F21DBB21160D12B0BD073
:10020000D02B01D80133DBB2A022D2059168FF20A8
:10021000814319439160F1E70023424A42499A1809
:100220008A4204D24149C95804331160F5E7404B72
:10023000404A191D043B934203D200221A600B1C52
:10024000F6E7EFF308823C4B191D043B9A4203D9B1
:100250003A4818600B1CF7E7FFF7BAFF38493948EE
:10026000053989B280B204F0E1FF374C374D0123E4
:100270005B4223716371A371E3712B1C3C331A78C9
:100280002B1C3D331B781B02134398423FD107F0D0
:10029000D1FD2F4B2F4918882F4A88420BD06E7DF5
:1002A00018882B7D36023343984204D113889BB2C1
:1002B00023711B0A637113888B421BD0EE7DA87DCE
:1002C000138836023043834214D100200423013BBB
:1002D000DBB2FF2B07D0214EEF18F65C3F79B74217
:1002E000F5D10120F3E7002804D013889BB2A37155
:1002F0001B0AE371637922791B0213438B4206D0F8
:10030000E279A37912021A43124B9A4204D1144B98
:1003100002221A6062B6FEE700F082F8F7E7C046F4
:1003200028000050000000201C040020E8AC000061
:1003300020040020250B0020A00B0020CDCDCDCD2A
:1003400000C0000000000000300B0020C0BF000013
:10035000FEB30000FFFF0000BEBF000000B40000BD
:1003600000E100E0014B18607047C046380B0020E8
:10037000014B18687047C046380B0020014B1860CD
:100380007047C0463C0B0020014B18687047C046C0
:100390003C0B0020014B18687047C046000000204D
:1003A00038B5114C256805F02BFBA862256805F0CF
:1003B0002BFBE862256805F02BFB6861256805F0DA
:1003C0002BFBA861256805F03BFB084923680968F9
:1003D0001A1CFC320E31E861516002229A67E83340
:1003E00003221A6038BDC046000000203C0B0020EC
:1003F00008B502F083FF021E05D10749A9230B713E
:1004000007F0C0FCFEE7054B1B6803CB04F09EFF22
:10041000FFF7C6FF08BDC0461B0500200C040020E6
:1004200037B507F03BFB6C46073420700AF0D6F96D
:100430000AF034FA02F070FEFFF7DAFF07F02EFB45
:10044000051C0E2800D90E25E8B2034B8200D358B4
:10045000211C98472570F1E7480100200E4B3220FF
:100460001B680022191C90314860642088600220BB
:100470000861012048610A60CA60181C0121AC3083
:1004800049420160826001618261C03304380160C9
:10049000826001611A60704700000020F0B585B0ED
:1004A00000AFB960F86005F075FD83000A33DB0822
:1004B000DB006946C91A8D46041C684605F072FDCA
:1004C00063000833DB086D46DB00EA1A9546684690
:1004D00005F086FD00226E46111C013C06D3A300E8
:1004E000EB58C9186300F35AD218F6E72E4C0220D5
:1004F00023683B60A4331C1C0C3C25680138632D29
:100500000DDD002525601D613D6801269035B4464E
:100510007D6076429E6065467E684540356026680F
:10052000013626601C698C4200D219619D688D429B
:1005300000D999601E68012E09DD00241B4E1C6045
:100540001C623C689E6101269C34464026601C6803
:1005500001341C601C6A944200D21A629D69954263
:1005600000D99A61043B0028C5D10F4EFC6833685E
:10057000BD681A1C90321268BD4692009A18111C70
:10058000B031A832096812688A1A22801A1C9C327B
:10059000126892009B181A1CC032B83312681B688C
:1005A000D31A2B8005B0F0BD00000020FFFF000033
:1005B000F0B585B01F1C0AAB1B78151C0191039385
:1005C000041C04F0B3FD1E4B281C1B680021DA68D4
:1005D00092000AF005FA019E002E0CD0201C05F0B6
:1005E00041FB184B281C1B68391C5A69002307F073
:1005F00033FE013EF0E7002C0FD1124B1B685F6900
:10060000DB69029305F0EAF9061C05F0F1F902999D
:10061000031C321C381C07F007FD281C0021019A1E
:1006200007F06EFE039B012B08D1002C06D1054B71
:10063000201C1D6805F048FCFC35A86005B0F0BD25
:100640000C04002000000020F0B589B0059106924E
:100650000793049007F0CAFC234B80791B68029033
:100660005A699B6905985A43002192000AF0B8F92B
:10067000029F013F7A1C2BD0049805F0F3FA1A4B25
:100680001E6872690192019B013B0393F1D3B46927
:10069000164B059AE518039B6343ED18AD005519F9
:1006A000013C13D3B368019A5343E3180133069A0C
:1006B0009B0098582B6818182860002F04D10299C5
:1006C0000AF0DCF900042860043DE9E7039AD9E761
:1006D000079B012B06D1064B04981C6805F0F4FB20
:1006E000FC34E06009B0F0BD0C040020FFFFFF3FC8
:1006F000000000207FB53B4B1B681A1CE6321278C5
:10070000002A04D11A1CC8321278002A02D0703391
:1007100000221A70FFF73EFE041C07F0E5FF061CDE
:1007200007F0C8FF304B1B88033B052B25D8E36B34
:100730000B3B0B2B21D8256B616C281C0AF0ECF9C4
:100740000338042819D80B3D0E2D16D88D239B0095
:10075000F558012D11D1231CFE331B78002B0CD131
:10076000231C80331B78002B07D1E26F052A02DCA3
:100770000132E26703E0E36730E00023E367231C14
:1007800070331D78002D1CD0626F18490192A36B45
:10079000002002930323226B4B707C235B42039265
:1007A000CB7001AA10230B7107F0ECFA636FA26FF4
:1007B0000025934202DC013363670FE06567012582
:1007C0000CE0A36B226B0A49019302926423092077
:1007D00001AA03950B7107F0D5FA6567281C04B0D0
:1007E00070BDC0460000002030040020B801002089
:1007F000BF010020F0B56C4E93B0336804AF1C68A5
:100800003A6104346400221C0832D2086946D200DE
:10081000F860881A5A68854604325200131C08335F
:10082000DB08DB00C01A04AD8546B96004A9796114
:10083000081C00210AF0D4F8221C281C00210AF010
:10084000CFF85A4CF86823685A69191CDB69009084
:10085000281D01907869303104300290386903F026
:1008600061FD336878609A6891001A6823680132E4
:100870004A43586900210AF0B3F82068436D643098
:10088000036008F0E3FE2368586900957A69191C33
:1008900001925C313A69303303F0BAFEBB689D4681
:1008A00007F0BCFB051C07F01FFF2B7B002B0CD0B7
:1008B0005C300378002B08D122683E23FF33D35CE1
:1008C000012B02D0012004F05BFE336838495A68DE
:1008D00018684A709A68CB787F250870AB4302206D
:1008E0008024034364422343CB7053238A700B71EB
:1008F00001323B6952009A18012007F043FA381C74
:100900000021202218300AF06BF833681868596803
:100910009A6838767976BA760533DB7F3969FB7663
:100920007B7F0220AB430132034352008A181C43F1
:100930007C77391C0092002201201831131C07F02B
:10094000E7F902F0EDFB02F0C7FCFFF7D3FE002849
:1009500026D1164C2368586905F02CFA2568281C06
:10096000291C5C31303003F035FE23682866186E90
:1009700005F07EF904F0ECFF7A68002A07D12368BD
:10098000F8681A1C30321B68396907F0B5FB022081
:1009900004F024FE2068643008F058FE052000E0D2
:1009A0000420BD460FB0F0BD0C0400200000002064
:1009B00014050020F0B59400231C0A3385B0DB0831
:1009C000DB006946C91A02AF8D4602AA061C7A608E
:1009D000101C0021221C0AF003F8231C0833DB083A
:1009E000DB006946C91A8D4602AD281C221C002175
:1009F00009F0F6FF0C4C301C2368D96A9A6A5C3304
:100A000000910193291C7B6808F042FE301C02F023
:100A1000A7FC2368301C9A6ADB6A291C00937B6858
:100A200008F090F8BD46F7BD0000002070B50C1C22
:100A3000151C1E1C08F028FB0B4B201C1B68996A18
:100A4000DA6A08F01FFC201C08F0D8FF291C201CC3
:100A500008F012FD291C321C201C08F083FD291C03
:100A6000201C03F0B5FB70BD0000002038B509F074
:100A700065FE051C012009F075FE041C281C04F00D
:100A80003DFB201C04F046FB38BD38B509F042FFA1
:100A900009F05CFE051C002009F064FE041C281C03
:100AA00004F02CFB002005F02FF9201C04F032FB91
:100AB00004F048FD38BD10B5A4B08C22041C002100
:100AC00001A809F08DFF01A8211C08F08DFD08F098
:100AD000B5FD01A8211C02F001FD24B010BD0000ED
:100AE000F7B5071C07F000FE484E34682379002B49
:100AF00002D0012B2CD065E0454A211C1268FC3144
:100B000012788D68816E2260002905DC2169414BD5
:100B1000994202D02369013323612369934251DD55
:100B2000C36E002B4ED1221C8C321370391CA2696B
:100B30000420FFF789FD04F07BFD012005F092F809
:100B400004F0CEFE01239F2231689A408B542CE0A2
:100B50002F4B271C1B68FC3701935B78FD682360D3
:100B60002069231CFE330130998C0AF02BF80029F0
:100B700004D12369002B01DDBB68ED1892235B00D3
:100B8000E35C012B09D1019ABD681378022223602E
:100B90009F235B00E254002307E022691D4B9A4229
:100BA00010D02369013323610CE0316892200022C8
:100BB00040000A540B710A6117490E33101C0B7167
:100BC00007F0E0F83368186805F04AFA041C281C9E
:100BD00005F06AFA241A0120002C08DD3368186831
:100BE00005F03EFA041C281C05F05EFA201A316854
:100BF0009F2252008B5C012B02D100208854181CCC
:100C000004F0BEFC04F0DEFCF7BDC046000000208E
:100C10003C0B0020FFFFFF7F1B05002008B50B4B9E
:100C20003E221B68FF329A5C002A0ED11A79012AF3
:100C300006D1922252009B5C0420002B05D102E0D9
:100C4000002A02D1022004F0E5FF08BD00000020C8
:100C5000F0B587B007F0E2F9071C07F045FD816E9B
:100C6000A34B002906D1046F621E9441E4B2002C0C
:100C700005D000E001241A680021D03205E01A688E
:100C8000D0321168FE2901DC013111601B6800219E
:100C90001A1CE43215881180183A029511708C42A2
:100CA00004D094490968C97C002958D0181CCB305D
:100CB0000178C9B2002908D003785BB2022B00D0BA
:100CC00001231370002303700EE11E1CC836357813
:100CD000002D09D0012515701A1CC932D4330170BA
:100CE00031701170196000E1002C38D1191CD43119
:100CF0000D68002D08DD013D012D01D00D602EE0B5
:100D000003230C601370F0E01A1CFC325268118847
:100D1000794A914223D01A1CE0321188774A12682E
:100D2000D2898A421BD8734D2868027C181CD030A7
:100D30000068904213DB05AA1180E2331B887049DA
:100D4000538002234B70CB70201C15230B7107F0CE
:100D500019F8674B2A681B68527CD4331A60654EB9
:100D60003368987C002800D0BEE0614D002C22D171
:100D70002A689B7FDC3212689A4214DB6149122395
:100D8000201C221C0B7106F0FDFF2A683068131C22
:100D9000D833196801311960C07F814203DB1C60C0
:100DA000CC32022313702A680023111CCA31DC32B2
:100DB0000B7013603DE02B681A1CD43210602A328D
:100DC0001278002A35D0191CE031098805AA118053
:100DD000E2331B884A49538002234B70CB7019239E
:100DE0000B7106F0CFFF2B683268191CE0310D88BB
:100DF000908B1639854214D2181CE2300588108D6C
:100E000085420ED2908D029D85420ADA097800292A
:100E10000FD1DC331968927F91420ADA01311960EF
:100E200007E001220A70191C0022DC31D8330A6065
:100E30001A602F4E3268131CFE331B78002B53D1DF
:100E40003B7B002B4ED0131CC8331D78002D4BD19B
:100E5000284F106B3B683A689B8A118B9C463B6815
:100E6000528BDB8A0093634607F07AF83B68039065
:100E70009B8C32689C463B68106BDB8C3A68118C0B
:100E8000528C0093634607F06BF833681A1CE0320B
:100E90001188039AE233914207DA1A88824204DA0F
:100EA0003A680298528D904210DB05AA11801B8887
:100EB0001349538002234B70CB70002017230B7112
:100EC00006F060FF33680122C9331A7033681A1CB8
:100ED000C9321278002A07D0002C05D0C83301226D
:100EE0001A7002E0C93213700125281C07B0F0BD4A
:100EF00000000020380B0020FFFF00003C0B00200A
:100F0000B80100201B050020F0B58FB000AF39619B
:100F1000061C04F005F9786104F0F6F89C4DB86001
:100F20002C686846E268131C0E33DB08DB00C01A2D
:100F3000854660686B461218FB62131C0E33DB0893
:100F40006946DB00C91A53000E33DB08DB008D460F
:100F5000C91A684679628D460021786309F040FD20
:100F6000E06861684218012152004942786A09F03C
:100F700037FD2369E2688749D2189200386909F081
:100F80002FFD2B68F86ADA68796909F0E7FC002E12
:100F900014D17F4D804C2B6808201A681B79227071
:100FA0006370A3707F235B42E370211CD223FA6A33
:100FB000237106F0E7FE2B681B68BCE04024002587
:100FC000FC61BD6200210122F86A05F0FDFA0320F0
:100FD00004F048FE6E4C704923681E6858689A6891
:100FE0000423CB7051230B716C4B8A701B68013248
:100FF0005B69920048709A1802200E7006F0C2FEDB
:1010000023681B683B63396B614B0139B96100D2BE
:1010100081E01B6859688C466646013EB44677D32A
:101020005B4BBA6918683C6943685D4D5343634440
:101030009A00A2181168A942EED03E6B8068574C06
:1010400070432468604464690130800000595E0088
:1010500084B23C62201CA14203D87D6A611AA95364
:1010600020E07C6AA6190025745F7E60013414D0EC
:101070007E6BF41825786EB2FE60013601DA013518
:1010800003E0FE68002E08DD013DBB6A44480133E1
:101090009BB22570BB6210602CE07D6BEC1825784C
:1010A000002D01D110600CE06DB26E1C05D1386AC4
:1010B0007A68091A1180002202E0012D01D1FF2275
:1010C00022707C6BE1180A7850B2002806DC7D6A39
:1010D0005800405F013007D0002A05D1FE6A013276
:1010E000F3563E2B05DD05E0FC6AE356002B01DDDF
:1010F000013A0A70264BBD691B687E6B5B687C6990
:101100006B436344F15CE25CFD6A8A18EA5483E74E
:10111000B869386377E71B68BC6ADA681B69D3185B
:101120009C4200DB35E7FB69013BDBB2FB61002B36
:1011300000D047E72DE7013B11D32A685268013AF6
:10114000F9D32968FE6A4968594389187118BE683D
:10115000F0183F300E78007830180870EFE7F86A22
:101160000021012205F030FA2B68211C18681B7938
:1011700020706370A3707F235B42E37008201D23FF
:10118000FA6A237106F0FEFDBD460FB0F0BDC04601
:101190000C040020FFFF00001405002000000020C8
:1011A000FEFF000038B5051C0C1C03F0ADFF343009
:1011B0000078211C434258412840FFF7A5FE38BD66
:1011C000F0B5464E87B000AF35683E24B860796010
:1011D000FF342B5D022B02D100232B5502E006F0D9
:1011E00073FC285531683E4D0A5D002A11D12B68E9
:1011F0000A2098621020D862FF31122018634A73C7
:1012000009F0ECFA09F04AFBFFF7F2F804F0E8FD08
:1012100015E006F0F7FE0026067009F035FB2B6896
:1012200003CB04F093F8FFF7BBF82B6802221A6295
:1012300004229A620822DA620A221E611A632B686B
:101240000A26D8699D6A8200111C0A31C908C900A2
:101250006846401A78618546596818686E4341436C
:101260008900331C0A31C9080833C9006846DB0805
:10127000401AAD00DB00C11A2B1C0833DB08DB0071
:1012800085468D463860C91A684638618D46F960D2
:101290007869002109F0A4FB321C3869002109F0AB
:1012A0009FFB2A1CF868002109F09AFB0D4B0022D5
:1012B0009A603A693868DA60084A18607969F868AB
:1012C000126859601861125D074990004458B86867
:1012D0007968A047BD4607B0F0BDC04600000020B9
:1012E0000C040020400B00208401002010B5041CD9
:1012F00006F06CFC06F0D2FBA042FBD009F04AFAE3
:10130000FFF776F806F060FA10BD0000F7B500AF01
:10131000051CFFF7ABFBFFF737F82C4B041C1B68D1
:10132000DE8906F081FB6B4600207B6004F0ECFC5C
:1013300004F0B2FC264B1B6831331B78002B04D021
:101340000020E081291C00F023FB04F025FBC0B243
:1013500006F064FDFFF724F81E4B01201B68DA68D5
:101360001B69D3189B000A33DB08DB006A46D21ADC
:1013700095466946FFF716FF7B689D4606F026FCFA
:1013800006F02EFC052815D004D8002814D0032818
:101390000AD806E006280AD0031C113BDBB2022B58
:1013A0000AD801F083FC07E005F0C4FB04E004F078
:1013B000C9F801E004F0B4F806F070FBA842DFD0F1
:1013C000FFF763FBBD46E681F7BDC0463C0B00203E
:1013D000380B00200C04002098B500AF041C06F068
:1013E000F5FB0B4B01201B68DA681B69D3189B00C7
:1013F0000A33DB086A46DB00D21A95466946FFF7D6
:10140000D1FE06F04BFBA042FBD0BD4698BDC046C6
:101410000C04002010B5041C06F0D8FB01F044FCBD
:1014200006F03CFBA042FBD010BD10B5041C06F03A
:10143000CDFB04F05DFD06F031FBA042FBD010BDFA
:1014400010B5041C06F0C2FB0220211C00F0A0FA1B
:1014500006F024FBA042FBD010BD10B5041C06F022
:10146000B5FB0120211C00F093FA06F017FBA04207
:10147000FBD010BD10B5041C06F0A8FB002004F042
:10148000F1FB04F04FFC06F009FBA042FBD010BDBD
:1014900010B5041C06F09AFB002003F049FF002061
:1014A00004F0E0FB04F03EFC06F0F8FAA042FBD0AA
:1014B000012003F03DFF10BDF0B5A3B002AF3861CD
:1014C00006F084FB002009F01FFA09F0E7F900207C
:1014D00004F01AFC5B4C694623685D6818681B6958
:1014E0004543EB180733DB08DB00C91A8D4602AA17
:1014F000FA6103F015FE03F007FEFB695D19181C85
:10150000291C7D6104F086FD23686C465A681B69BE
:10151000D3189B000A33DB08DB00E41AA54602ACB3
:10152000BC6106F053FB381C00212022203009F05A
:1015300057FA444C20202368012519681A79C155AF
:1015400021202221C255CA550533DB7F25202322C5
:10155000D355C35D7F229343FA692B43C1190B70A6
:1015600000920022131C0420053906F0D1FB796992
:101570002A1CF86905F028F8002004F073FB2568A0
:10158000B8696E682B69B4009B199C462E4B0419F0
:101590001968BC60002363450CDA9A00B34203DA91
:1015A000CC69B869A45802E04C6AB868A458845061
:1015B0000133F0E73C1C4034201C0021202209F0BC
:1015C0000FFA2968AB6821706670A3700535EA7F51
:1015D0007F26E27062790425B2432A4362711A4A77
:1015E000013312689B005269211CD3180022203459
:1015F00000930220131C06F08BFB201C00212022EC
:1016000009F0EEF9012323700E4B211C1B681020FA
:101610001A7905336270A270DB7FBA69E37063796F
:10162000B3431D43657100920022131C06F070FB4A
:1016300006F034FA3C69A04200D174E7BD4621B0FF
:10164000F0BDC0460C0400200000002010B5041CB2
:1016500006F0BCFA06F022FAA042FBD010BD000052
:10166000F0B58BB000AFB86106F0C0FC584C6E46C8
:1016700023689D68DB687D625A00111C0E319B0057
:10168000C9080E33C900DB08DB00761AB546F61A26
:101690006D4600216846B5467D61FE6009F0A0F9FF
:1016A000002004F0DFFA7E6A4A4A20681568B2001A
:1016B00052420368BA60321C5A439100F961B10783
:1016C000711A79609107891A3A62013B23D3446801
:1016D0003E6A3219261C5E437618B400FE689200FA
:1016E00034193C61FC69A2420BD03C690426A41861
:1016F000A4466C697642A458B44466463460043A01
:10170000F0E7BE683A6AA419FC617C6A7E68121B25
:101710003A628919D9E7BC690B2C55D1002004F035
:10172000A1FA2B4B19682B4B08681C687B6AB861BF
:1017300043439A003A629A07D21A3A61FB6184469F
:1017400066464A68013EB4462ED365465543FE6957
:101750002148B318121852197E6938695200B2181C
:101760002D18FE68AD0075199B003D603E6AB342BE
:101770000ED03D68E818656904380668E858301AE4
:101780000025565F864200DA1080043B023AEDE7FE
:10179000BD6876193E627D6AFE69761BFE617D68D2
:1017A0003E6976193E61CBE70C49B8697E23D2B217
:1017B0005B4208704A708A70CB70012052237A69AC
:1017C0000B7106F0DFFAA9E7BD460BB0F0BDC046CD
:1017D0000C04002000000020FFFFFF7F1405002004
:1017E00010B5041C06F0F2F9201CFFF739FF06F0D3
:1017F00055F9A042F8D010BD70B5037886B0041C2E
:10180000012B2BD103F074FC6568164C266806F09A
:1018100069F9FF36B07704A806F09EF9684606F02D
:1018200067F969460F22281C09F098F823688F2170
:1018300049005A182978FF331170987F049A059B44
:1018400005F0ACFB2368FF33DC7F6408201C05F047
:10185000D9FB201C05F076FD04F0C2FA012006B089
:1018600070BDC0460000002008B5416803780A4AF0
:101870000A4812680068FC320E305060002B03D01A
:10188000C9B2002000F084F804F086F8C0B206F077
:10189000C5FA022008BDC046000000203C0B002015
:1018A00008B503680079002805D101201968FFF701
:1018B00079FC032004E00138434243410520C01A6B
:1018C00008BD0000037A70B506784568002B05D086
:1018D000012B06D104F084FA002303E00123042441
:1018E00001E001230524044A70B21268291C9269A0
:1018F000FEF7AAFE201C70BD00000020037BF7B598
:1019000004680679057A0527012B02D104F068FAEC
:10191000032706F077FB76B241782268301CA36873
:101920000095FEF745FE381CFEBD0000F0B5174BD4
:1019300087B01A683E23FF33D25C0C1C07684668E8
:101940008568C368002A05D1F8B2311C2A1C00F052
:101950009DFB16E05A78197812020A439978FFB273
:1019600009040A43D97868460906114305910B22F8
:10197000191D08F0F3FF381C311C2A1C059B01F0CF
:10198000C7F82070207807B0F0BDC04600000020E6
:10199000F0B5D24B9DB000AF1A683E23F8633960B2
:1019A000FF33D35C012B01D0032400E005243C620B
:1019B000CB4C2068407C43000133FB65786303F027
:1019C000DBFF236878665B7CFF22D31A984200DD38
:1019D0007B66786E7C6B041B3C636C4603F0D4FF23
:1019E000BC65FC6D684665002B1C0833DB08BD4CEC
:1019F000DB00C01A012363707C235B423A1C8546DE
:101A0000E370211CB1230020643223716E4606F07E
:101A1000B9F90023211C3C6B5A001819FC6D0133E5
:101A2000B052A342F7DB0223CB70321CE4B2632333
:101A300000204C700B717C6406F0A4F92B1CBC6D6B
:101A40000833A546DB08DB006846C01A8546C01A85
:101A50006C468546BC65386404F09CFAB861012088
:101A600003F01EFE00212A1C386C08F0B9FFB86D87
:101A700000212A1C08F0B4FFFC6D6846A400231C5A
:101A80000A33DB08DB00C01A8546C01AFC627862A4
:101A90006C468546C01A8546BC626C467C61BC6952
:101AA000A4007C600024FC640021FA6AB86A08F093
:101AB00097FF786AFF21FA6A08F092FF0024884BAA
:101AC000BC641B68BC6C1B7C9C4251DA3C6B0026DE
:101AD000E4B2201C3C6103F064FF03F02DFF03F02F
:101AE000D5FD7C697D6AFC61BC6AF86D0136F21730
:101AF000C30F86425341DBB2FB60002B06D139692C
:101B00008819C0B203F04DFF03F016FF6B46BB60AF
:101B10007B686A460A33DB08DB00D01A85466A46D2
:101B20007A6504F03FFA0020031CBA69934205DA93
:101B3000796D9A008A5801338018F6E72368984235
:101B400000D920602968884200D2286003F092FD05
:101B5000FA69043501C2FA61BB68F8689D4604342D
:101B6000002802D103F092FDBFE7BC6C0134A6E768
:101B700000255D4E2C1CB96A7A6AA300C858D35858
:101B8000C01A3B6A9C4206DB864204DD396B061CA8
:101B90006118B9633C65854200DA051C03F06AFDF3
:101BA000BA6D6300D052FB6D01349C42E3DB281C0C
:101BB00003F060FD4A4B1B68DB89984206DAFC6B38
:101BC000012C03D07C6EBC637C6B3C65FEF746FC4D
:101BD000FC6B012C21D13A6C0023BC6D5900615A79
:101BE0001088884200D21180FC6D01330232A3427A
:101BF000F3DB3C6D63003C6C1A5BFC6C131CA24273
:101C000000D2231C37499BB27C6CFB64002002236A
:101C10004C70CB7008713A6C19E0F86B314C0228AB
:101C200008D1796C042300206170E3702071211CBD
:101C30007A6927E0281C03F01DFD7A6C80B2F864F5
:101C4000627002230020BA6DE3702071211C06F03F
:101C500099F83C6D6823DC53BC6B6A20C4533C6D1F
:101C60006E216300BC6D6C201B5BFC6CC353CC53BA
:101C70001C4904234B700223CB703A1CB2230B7116
:101C80000020683206F07EF8144E3C6D3268630026
:101C9000111CFC31BC6D49681B5B09888B4227D93C
:101CA000002925D008F036FE041C08F06BFDC3792E
:101CB000051C002B06D0012006F0A4F83368FC3385
:101CC0005D6027E0002C25D1084B1B689B7C002B16
:101CD00020D1012006F08AF81CE0C0460000002058
:101CE0003C0B0020B8010020FFFFFF7F380B0020D5
:101CF000FF321278002A0DD00E4C2068C2899A4219
:101D000008D9002006F07EF80B4B22681B680E32C3
:101D1000FC335A60FC6B002C06D1BC6BE0B203F0C4
:101D200040FEBD461DB0F0BD3B68063B012B00D810
:101D3000BAE6F2E73C0B002000000020F0B585B0C9
:101D400000920391029008F0E5FD061C05F01EFFCD
:101D5000071C05F023FFA04D01902B681A1CFC32D4
:101D60001278BA4220D0002F08D09C4900203B2393
:101D7000021C0B71022606F005F810E001990524FB
:101D800000290DD195493C23381C3A1C0B7105F0F4
:101D9000F9FF2B68FE331E78731E9E41F6B20124B4
:101DA0002B68FC331F701DE01A1CFD32127801995C
:101DB0008A4216D0002906D1FE331E78731E9E413A
:101DC000F6B23A2301E03923022684490020021C9E
:101DD0000B7105F0D7FF2B68019AFD331A700124AF
:101DE00000E0052405F062FE071C05F0C7FE009B1D
:101DF000032B02D0002F03D107E00124002F36D09F
:101E0000002005F05BFE012431E02B68FC331F88C5
:101E1000002F2CD10099012902D0022904D00EE014
:101E2000009805F0E3FF0AE0381C05F0DFFF2B689F
:101E3000FF331B78002B02D0381C05F0E3FF05F0C0
:101E4000CFFF2B68071CFE331B7883420FD000287E
:101E500002D01123012601E01223061C5F49002055
:101E6000021C0B7105F08EFF2B68FE331F7008F00B
:101E700051FDB04238D008F04DFD08F067FC071C5A
:101E8000301C08F063FC009008F044FD301C08F0A2
:101E90003BFD08F003FD524B1B68DB7C002B0FD091
:101EA000012C0DD0009B3A1C363236330298039930
:101EB00006F0F6F9002003F0D5FEFEF7CFFA06E0B3
:101EC0002B680020E633187003F01EFF0124002069
:101ED00005F098FF2B6800211A1CFF321170414A4F
:101EE000FC3312680E325A6008F014FD08F04AFC08
:101EF000C379002B08D005F07FFF2B68FF331A78D9
:101F0000824201D01870012406F0EEFB061C05F099
:101F10004DFE3379834200D0307105F029FE3279CD
:101F2000051C314B002A01D0002200E00278F25457
:101F3000AB7A012B2DD12D4A6B7A297AB25A1B022A
:101F40000B439A4219D1D322EB799200A979B25A64
:101F50001B020B439A4210D1D222EB789200A9784F
:101F6000B25A1B020B439A4207D1214A6B79297955
:101F7000B25A1B020B439A4206D0D2229200B018EA
:101F8000A91C0A2208F0EAFC1A4A0023B354AB72D7
:101F90001FE02B7C012B1CD1D522EB7B9200A97B6F
:101FA000B25A1B020B439A4207D1134A6B7B297B1F
:101FB000B25A1B020B439A4206D00F4B291CF01851
:101FC0000C31062208F0CAFC0A4B0122F25400230D
:101FD0002B74201C05B0F0BD000000201B05002064
:101FE000380B00203C0B0020460300004E0300008D
:101FF0004A0300006203000052030000F0B5214FC5
:102000009BB03A6800261C1C051C6B46101CDE7138
:10201000683001230370D66604220E92626802962D
:1020200003960496059606930795089609960A94D2
:102030000B960C960D960F9210961196129413967D
:10204000149315961695179118941992B20002AB35
:10205000360198190C4B6946D358073198473A68AE
:10206000A0235B00D15C061C012902D10021D154C0
:1020700003E005F013FDA842E8D0E068FEF71BFD81
:102080001BB0F0BD0000002090010020F0B5714CA5
:10209000C9B0171C019392222368002552001D71BC
:1020A0009D541D610E1C009006F024FB6A4B0199A3
:1020B0001B680A950B950C950E910F951095099735
:1020C0000D979A895878FA215043890008F024FD29
:1020D00025683378009AFE35A884934203D005F032
:1020E00075FD009B337006F0FFFA0021051C8C2261
:1020F00025A808F075FC0021282211A808F070FC22
:1021000003AE002128221BA808F06AFC00210A2245
:10211000301C08F065FCD9239B0025A9E950DA237F
:102120009B0011AAEA50DB239B001BA9E950DC238A
:102130009B00EE50474B00221B689A6005F068FE3A
:10214000051C03F029FCA84206D0281C03F029FC3A
:1021500003226B46DA7258E040490020A623021C95
:102160000B7105F00FFE0198FEF7BAFC21686D4671
:10217000081CE030E231FEF791F9394B39491B6810
:1021800002205B680B354B700423CB705B230B7113
:102190002368DA6905F0F6FD236833491A1CE0323A
:1021A00012880C2006921A1CE2321288E43307923D
:1021B0001B8806AA089301230B7105F0E3FD226832
:1021C00009A91079294A8300D318000108189B69CE
:1021D000291C98472368CC229A563868B968FFF7BB
:1021E000ADFD052800D02870214B1A68214B9A427A
:1021F00002D003F07DFEFEE7164B1F4A1B6899686C
:10220000914202D09A6801329A606D460B352B7864
:10221000104E052B0CD005F057FC33683E21FF31E2
:102220005A5C824213D00121A0228A4099540EE0C8
:1022300005F04AFC32683E21FF31535C8342EAD10B
:1022400005F02CFC009A904200D177E7E3E728786C
:1022500049B0F0BD000000203C0B00201B05002011
:102260000C040020B8010020BF01002090010020D4
:102270009C0B0020CDCDCDCDFFFFFF7FF7B5434CAC
:10228000151C236801911A1CC9321278061C002AF9
:1022900023D01A1CFE321278002A1ED11A1CE632F4
:1022A0001178002919D1C8331B78002B15D10123CF
:1022B000137002F029FF071C02F01AFF3A1C031CDE
:1022C00036323B33301C019905F0EAFF03F096FCEF
:1022D000022003F09FFCFEF7C1F823681A1CE632C7
:1022E0001278002A4ED01A1C294F0020C8321070D4
:1022F0003A680190126A011C013A0ED30E26564329
:10230000B446AC446646B688002EF5D036B20131EC
:10231000B042F1DA301C0192EEE71A1CFE3212785C
:10232000002A12D1012910DD06F0DEF901238366AF
:102330003B681B6A013B0AD3019EB342FAD00E22CE
:102340005A430021AA189180F4E7002904D0236899
:102350000022EC331A6008E01A1CEC32E8331168F2
:102360001B68994201DC013111602368191C1A1C99
:10237000EC31E83209681268914205DDC833012268
:102380001A7001E0EC331A60F7BDC046000000206F
:102390000C040020F0B5744E99B00468306802AFA8
:1023A00039602C220021303008F01AFB381C002143
:1023B0002022183008F014FB6C4D02202B685A685C
:1023C00019687A769A683976BA760533DB7F7F2189
:1023D000FB767B7F01328B4304210B437B77336891
:1023E00092005B69391C9A1800920022131C183164
:1023F00005F08EFC2B6869469A68796151001A686D
:1024000002324A43131C0833DB08DB006946C91A51
:102410008D4602AE0021301C08F0E2FA321C002387
:102420002068A168FEF7E6F9F8607A69FB689546CE
:10243000052B00D086E02E68111CF36A7A601A0121
:10244000131C0833C91A8D4602AB181C00217B618E
:1024500008F0C6FAF26A7869E168FEF7ABFA2B6811
:1024600069469A6A0E235A43131C0833DB08DB00C3
:10247000C91A8D4602AD0021281C08F0B1FA236963
:102480007869291CE268FEF7D1FAFEF7E1FB384BC8
:102490001B68DB7C002B04D12068A1682A1CFFF795
:1024A000EDFEE168281C01F019F807F053FC8300E9
:1024B0000733DB08DB006A46D21A954602ABBB60E5
:1024C0002A4B0E221C68061CA16A38610B1C013BBA
:1024D0005343ED18796104357A69013A7A610FD373
:1024E0000022AB5E002B09DD3B69B968013B980017
:1024F00008180422291D3B6108F030FA0E3DEBE775
:102500003D1C383500212022281C08F069FA236878
:1025100061682B706970A3681349AB700968053452
:10252000E27FC96A0133EA705B007E22CB18524217
:102530006A710093F2B20320291CBB6805F0E8FB26
:102540007A68954603F044FA03F058FB03F070F8FC
:10255000012003F087FB03F0C3F9F9683B68BD462F
:10256000197017B0F0BDC046000000200C04002018
:10257000380B0020F0B505279FB012975F68002444
:102580000122051C6E4602A81B911C4907360692C3
:1025900007900A920E930F921397149216930627A0
:1025A00019921C931D903F23201C221C3470089408
:1025B00009940B950C940D941094119415941797FD
:1025C00018941A950B7105F0DDFBA20006AB2401EF
:1025D00018190B4B311CD3589847041C05F074FA9A
:1025E000084B1A683E23FF33D35C834203D105F0C6
:1025F00055FAA842E9D01FB0F0BDC0461B05002027
:102600009001002000000020F0B595B002AF7B6083
:102610003B1C60337C68061C01CB25781B78396134
:10262000FA61BB60B74C002D00D0BDE00B78082BE1
:102630000BD103F0D5FB236871689A6905202B1C28
:10264000FEF702F83C692570ABE069460520796128
:1026500003F008FBAC4B68461B689A6951005A6945
:1026600001324A43131C0833DB08DB00C01A8546DD
:1026700002A9F961081C291C08F0B2F923687268E4
:102680009969F86905F096FE051C06F013F8221CFE
:10269000012D13D12368191CFF31497F00290DD169
:1026A0002024FF34F4301A5D0078904201D8195587
:1026B0001BE020200132FF301A542DE01368002265
:1026C000191CFF314A772021FF315A5490225200C1
:1026D0009B5C002B07D18D4B70681B68F969333305
:1026E0001A7805F07DFF012D16D103F079FB062045
:1026F00003F0B8FA7C6801232370824B3C691968A7
:10270000902300225B002270CA548149A323101C2D
:102710000B7105F037FB42E07A4D7C482B6802686C
:10272000191CFC313332127889695200914217DD4D
:102730002020FF301A5C002A12D1902252009C5CAB
:10274000002C0DD103F04CFBB368326806200094D6
:102750000121FDF72DFF2B68FC339C6103F040FB4A
:102760002B686C49FC339A698A4201D001329A6124
:1027700004F0EAFF04F086FF644C236833331878D2
:1027800002F00AFF002002F029FFB86803F009F9FF
:1027900004F09CFF02F0CAFC396EAC3001607C6929
:1027A000A54605247C61A4E1584D2B683433187884
:1027B0002368186002F0F0FE062003F02BFA524A5C
:1027C00069461368B96198681A68410002324A4341
:1027D000131C0833DB08DB006946C91A8D4602ABBF
:1027E000181C00217B6108F0FBF8206800212C22D6
:1027F000303008F0F5F83068B1687A690023FDF7E9
:10280000F9FF7861BC69A546052800D071E12B6805
:10281000FA215A8F343318788900504308F07CF934
:102820006C46FC60384CB86025686946E86A02016D
:10283000131C0833C91A8D4602AC201C002108F075
:10284000CFF8EA6A201CF168FEF7B4F82E4A684611
:10285000136800219A6A0E235A43131C0833DB08BD
:10286000DB00C01A854602AD281C08F0B9F8201C10
:10287000291CF2683369FEF7D9F800212C1CB961D4
:10288000214BBA691B689B6A9A4215DABA690A2316
:102890005343F0682288C3181A806288A11C5A80AA
:1028A000E288201CDA80A2880E349A8007F0A2F910
:1028B000B9690131B961E3E73C69281C2278F969FB
:1028C00007F074FA2070FC680E4DA5463C69237829
:1028D0005A1E012A03D82A680021FC32D161032B39
:1028E00009D0072B18D0012B00D000E12B68002263
:1028F000FC33DA61FBE0F86907F0BCFD041E19D077
:102900000BE0C046000000200C040020380B002023
:102910001B050020FFFFFF7F182405F0DDF8774B33
:102920001B681B6C18400123A3401840431E9841AC
:10293000404204402A68131CFF33997F022908D1C2
:10294000FC32D269B868824203DD3C6908222270F9
:1029500000249A7F022A3DD1DB7F580732D5182CFC
:1029600030D1381C283005F0F7F8F969381C4B785D
:102970000A781B0213438A78243012041343CA785E
:10298000BE8D120613431A88FD8DBA845B88FB84C2
:1029900007F05EF92422BB5E9E421DDA3A8DB6181E
:1029A0009E4219DD26203B5E9D4215DA7A8DAD18D8
:1029B0009D4211DD012005F0C1F8B88CF98C05F0BD
:1029C000B1F886E0990705D51A2C03D1012005F04E
:1029D0009BF87EE0002C7CD1494D2B681A1CFF32FD
:1029E000917F0122022906D1191CFC31C969BC68FA
:1029F000A14200DC00223C69217808295DD1D2B2D5
:102A0000002A5AD005F0DAF8002838D00224381C01
:102A1000221C3C49243007F0A1FF381C211C243023
:102A200005F040F9052005F06DF9381C0021202241
:102A3000283007F0D5FFF8692821037B2D20CB55DE
:102A40002A23DC552922C35DD4557F2293431C439E
:102A500080235B421C43C1190C70FC69052063781C
:102A600022781B021343A278053912041343E2783B
:102A70001206134300220093131C05F049F903F0DA
:102A8000BDF8012002F07CFD7868002404702B68FA
:102A9000201C1A1CFC32D4619461FF3301225A7746
:102AA00005F032F8201C05F049F81749A223201C34
:102AB000221C0B7105F066F91BE0FC33DA6913493F
:102AC0008A4201D00132DA6103F098F802F080FF07
:102AD0000FE0282202212923D019D155DC5505F019
:102AE000E1F803F08BF8012002F04AFD01E0002438
:102AF00020E77869BD4613B0F0BDC046380B002012
:102B0000000000207CAB00001B050020FFFFFF7FC2
:102B100082B0F0B5E3B06993DBB207929A075B0726
:102B2000DB0F05936B46D20F002526330F1C069250
:102B30001D70061C02F0FAFA031CAC331B6812ACC1
:102B40000390049305F0D6FD6B46A0222733201C8A
:102B50005200291C1D7007F043FF4E4B220A1C70C7
:102B60005A70220C240E9A70DC709D744A4B1A68BD
:102B7000FF32937F022B10D1D27F1A420DD0474BE8
:102B8000FA201B6880001B8F584303F08DFA02F077
:102B9000F7FC02F017FD02F01BFF41490020A223C1
:102BA000021C0B7105F0EEF83B78B34202D005F041
:102BB0000DF83E70384B00221B689A6005F028F92A
:102BC000041C02F0E9FEA04204D0201C02F0E9FE41
:102BD000042431E0049F69466B4626312D4A273391
:102BE000009701900798FFF70FFD0AAD041C281C01
:102BF00004F07EFF69AB1A78069F022178008A43B1
:102C0000059F02430420B90082430A4329781A70C1
:102C100006231A400B409A420ED00EAD281C04F039
:102C200067FF1D4B1A682B78FF32D3775A079B0733
:102C3000D20FDB0F05920693174D1A4A2B6899683D
:102C4000914202D09A6801329A60052C0CD104F0AE
:102C50003BFF2A683E23FF33D35C834206D104F056
:102C60001DFFB042AAD001E0042C05D0039B049FB5
:102C7000AC331F6003F010F86B4627331B78002B32
:102C800001D002F0BBFF201C63B0F0BC08BC02B056
:102C90001847C046540B002000000020380B0020CD
:102CA0001B050020FFFFFF7F70470000F0B5C94BF8
:102CB000A3B01C6800AF65682168F86368004D43E5
:102CC0006D002B1C0833DB08DB006A46D21A9546E0
:102CD000B8632A1C68460021FD61786307F080FE16
:102CE0006268216895004A439200131C0A33DB088E
:102CF000DB006846C01A85466B460021FB6207F080
:102D00006FFE636822689E005A439200131C0A33C8
:102D1000DB08DB006846C01A85466B46FF21BB61B5
:102D200007F05EFEF86B00210138786139631628E0
:102D300010D80123A84A8340134206D1A74A134260
:102D400008D0A74B1B682E3302E0A54B1B6830331D
:102D50001B783B63BA6B3B6BAD085208B608013B6E
:102D6000FD60BA603E617B627A6A013200D18BE01D
:102D70007869022804D9FB6B113B012B00D97FE055
:102D8000002002F06FFF934B964A1E681568336867
:102D9000BC6C7B643B623B6A013BBB636DD3746874
:102DA000013C611C66D0B368396A6A694B43E31819
:102DB00001339B009858FB6B032B2AD004DC012BBA
:102DC00006D0022B0BD0EBE7FB6B113B012BE7D8B6
:102DD000E969A3005B58C01AC343DB171840BA6BFC
:102DE000FB68F96A5343E3189B005958FA6A401884
:102DF00098507B6A002BD3D1B96BBB684B43E31867
:102E00005B00396BBB6207F039FEBA6A7B6BD0524C
:102E1000C6E7B96BFB684B43F96AE2189200525857
:102E2000BA62824200D2B862B96AFA6AE3189B00B9
:102E30009950BB6B3A69B9695A43A3189B003A6031
:102E40005A589446824200D984463B68B869E118D2
:102E5000890062460A50B86A7F21831AFD2B01D887
:102E60005B0899B2BB68BA6B786B5343E3185B009D
:102E7000195295E7BA6B3A628DE7B86BBC64786417
:102E8000796A013979626FE7524E1A2233681868FD
:102E900059687862B9631C690533DB7F381C0021EF
:102EA0004C303B6207F09CFD7A6BFB69101CD51817
:102EB000291CFA6B00F020FAF86B11286CDB122841
:102EC0000BDD132868D10022786B291C03F07CFBF2
:102ED000BA6B0023FA633B6260E0F96B11290CD1F5
:102EE0003368BA6B5B68013A013B7B613C1C002391
:102EF000FA634834BB6101200DE03368796A1B68CE
:102F0000BA6B013B01397B613C1C01237962FA6396
:102F10004434BB6100203568F861296879647B6CB2
:102F2000591E39637964002B34D06A68BA64BA6C6C
:102F3000531EBB64002AF2D0386BB969BE684218D0
:102F4000F8684243F869C1188A18F96A9200505823
:102F5000396BFA684E434A4384469A18F86A9200DD
:102F60001258216878699E19760081420EDA61460E
:102F7000FA208B1A8000891858434910002900DC78
:102F8000012107F0C9FD7A6BB052D0E7786B0023BE
:102F90003352CCE71C1C01E0B86BF863796ABB6B59
:102FA000386A3D1C6835FA6B2970AB70E870391CC3
:102FB000381C7E235B426A704C311A226E306B7172
:102FC0002C7107F0CBFC281C796B04F011FEBD4678
:102FD00023B0F0BD0C0400200400400003000300F7
:102FE000380B002000000020F0B5484E85B000AF3F
:102FF0003468396001684068231CB860FE3379602A
:10300000998C206907F0DEFD414B0D1C1B689A6905
:1030100051005A6901324A43131C0833DB08DB00B4
:103020006946C91A8D46F960081C002107F0D8FCD2
:10303000A169F868BA6805F0BDF9341C01280ED101
:10304000326892235B00D05402F09AFA02F0C0FC7E
:1030500002F0D4FD002002F005FE33684CE02D4E56
:10306000B8683368F9685A7805F0BAFA216892238B
:1030700000225B00CA5402F0ABFC02F0BFFD02F07C
:10308000D7FA012002F0EEFD02F02AFCFDF7E0FD88
:1030900031682268CB78111CFE31898CC91AA9428B
:1030A00001DD9D422BDC12699A4228DD04F0B6FF57
:1030B0003368426859688A4203DB9A6883689A4297
:1030C00003DA236801228C331A70002D04D102F038
:1030D000AFFA281C02F0C6FD3368DB789D420ED1A2
:1030E00023681A1C8C321278002A04D17A68596934
:1030F000106805F055F823688C3300221A7039687F
:103100000523BD460B7005B0F0BDC0460000002091
:103110000C0400203C0B002008B504F013FC08BD93
:10312000F0B585B005F0E0FA071C05F0DDFA674B55
:103130001C68231C68331A78012A06D1E26E6449A0
:103140008A4202DC0132E26602E00022E2661A7084
:103150001B78211C70310193256B0391012B39D110
:10316000002D0DDDA26B052353430292EB4210D5D7
:10317000281C616C07F0D0FC019E0E2827DD08E0BA
:103180000026B54223D1A36B019E32331FDB2E1CD8
:103190001DE0C82D1ADD029900264B00EB4216D522
:1031A000281C616C07F0B8FC0A2810DCE7239B00A0
:1031B000FB58022B0BDD231C80331B78B34206D156
:1031C000231CFE331E7873425E4100E00026039A02
:1031D000167032E0642D03DDA36BEB420CD527E0C3
:1031E000002D27D13B4BA26B1B68012612215B5E91
:1031F0009A4220DB2E1C1EE0C82D1BDD5B00002642
:10320000EB4218D5281C616C07F086FC0A2812DCFA
:10321000E7239B00FB58022B0DDD231C80331B781A
:10322000B34208D1231CFE331E7873425E4102E094
:10323000012600E00026039B1E70E16B1E2933DC93
:10324000AB1EC62B30D8281C616C07F065FC052826
:103250002ADC231CFE331B78002B25D12379002B7D
:1032600022D13E23FF33E35C002B1DD1E7239B00DB
:10327000FB58013B27D39A00DD21BA188900521868
:103280001268012AF5DC221C0832D06F211C0023B1
:103290008831052804DD803401202070D36701E0E7
:1032A0000130D0670B600EE0221C88321068211CB0
:1032B00008310023052803DD80342370136001E00A
:1032C00001301060CB6705B0F0BDC04600000020A3
:1032D000570200003C0B002008B505F0EBF9054B48
:1032E0001B681A1CFF32527B002A02D07033002266
:1032F0001A7008BD000000207047000008B502F0F9
:10330000CBFC02F04FF801F0E9FF01F09DFF0F4BFD
:103310001B681A7A0E4B1B68D033002A01D0022298
:1033200000E003220B491A6000230B700A49A02217
:103330000B700A49D2050B709363D36B3F218B430B
:10334000D36362B603F0D2F908BDC046700B00200B
:10335000B001002029000050280000502A00005031
:1033600038B5051CFDF716F8041CFF3405F0A2F96A
:10337000637B002B27D0144B00221B68DB6A013BC8
:1033800007D3190169180820095E0029F7D1012225
:10339000F5E70E4B1968086B0B1CFC33002810D1A5
:1033A000896B00290DD1002A0CD05A69FE2A01DC54
:1033B00001325A615A69322A05DD00225A6162736C
:1033C00001E000225A6138BD0C04002000000020FA
:1033D00070B5051C0C1C161C04F02CFC002802D037
:1033E00001280AD023E00E204643AD19EA88FF23C6
:1033F000FE2A00D8D3B2637119E00E20704328185A
:10340000C288FF23FE2A00D8D3B263710B220A239D
:103410008256C3560921D31A0822415682568A1A67
:10342000934202DDA371E27101E0A271E37170BD0C
:10343000F0B587B01D1C0CAB03AC1B78161C0091BB
:103440000C220021071C201C019307F0C9FA0F234E
:103450006A1C1A4040210A4322700122B2560320FE
:103460001A406270305672883188667800013340A5
:1034700003436370019BA170E270002B26D1227878
:1034800080235B42134323703A7B01231A40237845
:10349000102112018B4313432370BA88131C12B2FC
:1034A000FF2A00DDFF232A1C381C211C2371FFF793
:1034B0008FFF009B04229A5E074B1B685D195035F5
:1034C000002A01DD012300E000232B70201C04F002
:1034D000C1FB07B0F0BDC04614040020F0B5AA4CF3
:1034E00093B023680B901B68C82004914000FA2118
:1034F0005843890007F010FB0C9004F0A1FB2368EF
:103500000126FD331B780996002B65D09F4B049D47
:103510001B680B9C9E689F690696DE6807961E696D
:1035200008965E690A96002609960596984B059EB0
:103530001B681B6A9E424FDA2B8811A803806B8898
:10354000438006F085FB0420235E002B3EDD2388AC
:1035500010AE33806388301C738006F079FB002145
:10356000735E069A9A420ADA0798984207DD0221AA
:10357000725E089E964202DA0A9E964224DC04207D
:103580002A5E002A1DDD834A059E1268902092194A
:1035900080001218127952B2012A12DD069EF21B27
:1035A0009A420EDA079EF2199A420ADD10AB089E83
:1035B00002201B5EF21B9A4203DA0A9EF2199A421B
:1035C00002DC0023A38001E001260996059E0A354E
:1035D000013605960E34A9E70B9E002404360596A5
:1035E0006B4B1B681B6A9C4200DB97E1049E11AD8C
:1035F0003388281C2B8073886B8006F029FB0E23F0
:10360000059E6343043E0796059E06930023F35EE2
:10361000002B00DC23E107980599038810AE0239DE
:1036200033800B88301C73800A9106F011FB2B88C5
:1036300032880D93574B0B921A6876881319191C10
:1036400050310E966D88087853490F950968002807
:1036500001D1453100E04631097808914F49575C66
:10366000002F04D0109806F07BFA071C03E0D62642
:10367000B6009B191F70474BD6201D6880002B1980
:103680001B181B78012B0FD1059E0227317A049E4F
:10369000327A914200D1A9E000200093011C10AAC7
:1036A000231CFFF7C5FEA1E0049EDC230422B25ECA
:1036B0009B00022F09D1002A00DC97E0EB581B5D2C
:1036C000022B00D192E0032790E0012F6AD1002A5B
:1036D00035DDEB581B5D5A1E012A48D8022B2ED02F
:1036E000DA239B00EA5810AB0026995FA00012185D
:1036F0008C4603900021505E6646301A0226995F80
:1037000040438C460221535E6646F31A5B43244EC7
:10371000C318B3422CDDDB239B00EB5803980C9EAF
:103720001B589E4224DDD9239B00E858069E0023A7
:10373000009380190499231CFFF77AFE17E0D92320
:103740009B00E858069E079980190E2207F006F99B
:10375000DA239B00E858A6000422801910A907F07C
:10376000FDF8DB239B00EB5800229A5100E0032771
:10377000084BDB22196892008A58A300D3181A68F4
:1037800001321A6032E0C046000000208C0B00209D
:103790000C04002014040020880B002046030000C5
:1037A000C4090000002F21D1002A1FDDEB581B5D4A
:1037B000012B1BD1DB229200AA58A300D2580C9EE9
:1037C000964213DDD9229200A858DA229200AA5814
:1037D000069ED21880190499231C0097FFF728FE33
:1037E00004F04CFA04F020F904F02AFA049E0423B1
:1037F000F35E002B15DD0E9E32B20F9E33B2D31A4C
:10380000D817089E1B184340B3420ADA0B9E32B207
:103810000D9E33B2D31AD817089E1B184340B342EB
:1038200016DB099E002E13D0032F01D0002F0FD1DD
:10383000002300930798231C049910AAFFF7F8FDB2
:10384000079E3388049E33800A9E3388049E7380CB
:10385000384B1A68DC239B00D3581F554AE0049E5E
:103860000423F35E002B45DD324BDC221B68920003
:103870009A58165D012E21D1DB2189005958A200EA
:1038800089580C9888421BDDD9218900585806991F
:1038900000274018DA2189005B5804999A1800978C
:1038A000231CFFF7C5FD04F0E9F904F0BDF804F0AE
:1038B000C7F90096381C391C2A1C06E0022E07D0D6
:1038C000012300200093011C11AA231CFFF7B0FD67
:1038D000059B049E043B1B883380059B023B1B8891
:1038E0007380154B1A684023FF33D15C002901D047
:1038F0000021D154059E01343388049EB380059E77
:103900007388049EF380059E337A049E3372059E6D
:103910000E360596049E0A36049661E6054B1B6832
:103920009A6E191C5C310A70DA6604F0A7F913B0BC
:10393000F0BDC0461404002000000020F0B5C44BC8
:103940009BB01B6800270793C24B0B901B6811911B
:103950001B6A04970393039C0E235C43039A051987
:1039600010940E952B1C0F970E3B013A0BD3D98860
:10397000049C8C4200DA04910425595F0F9F8F420A
:10398000F2DA0F91F0E7B44C012123681A1C52328D
:10399000127891401A1C533212785433891A1A78CB
:1039A0008B1ADBB21393FCF7F5FC23680D901A1CFD
:1039B000383212780C923E22FF32815C01291AD1F2
:1039C000A64B1B68F5331B780C93109B0B9D039C37
:1039D0000E3BEB18013C089406931C1C039B079FAD
:1039E0008C20093380009B003A18089DD3180434BA
:1039F0000A93059517E09F220D9F5200BA5C393358
:103A0000022AE2D1DFE7231F00201B5EFF2B0EDD21
:103A10000027E35F002B15D1059F0A9D013F043D60
:103A200005970E3C0A95059F0137ECD1CCE00021AB
:103A3000635E002BECDD40220D9D0123FF32AB5471
:103A40000C93E5E7844B0D9F1B683E201A1C473200
:103A5000FF3015783A5C002A04D11A1C608802CA2B
:103A600014330CE0012A0DD17C4B88261B687600AC
:103A70001A1CFC32116960889A192133FF3304F053
:103A800080FA061C0D9BFF335A7B734B002A05D02E
:103A90001A6829321278964200DA161C1A68131C2A
:103AA00048331B78002B01D164234AE06C48079F00
:103AB0002B1C38181490417B1591002921D1002529
:103AC000675F64217943079DCB2080008C462918CD
:103AD0001D1C7543AC4512DDB74210DC8D68AC4649
:103AE0000125AC4467468F605C4F3F6880373F7864
:103AF000BC4506D114984573159D8D6001E00020EA
:103B00008860079F56483D18697B002913D000271D
:103B1000E15FCB20079F8C4680003918B44508DD53
:103B200088680C9F01308860B84204D10020687317
:103B300000E000208860079D494FE919497B002972
:103B4000B2D0079D8C27BF00E919059D4819057D56
:103B50000027E05F002D03D00C9F6DB2BD4221DC39
:103B600064214143734399420FDB131C44331B7898
:103B7000049D61886B439B11994206DB136C0F9F78
:103B80007B439B11984200DB46E70A9D079F8C20F0
:103B900000238000638023802B603B185A68013A21
:103BA0005A6039E7283212782E4D724368435343E6
:103BB000984200DB30E70A9D0023638023802B605E
:103BC0004B68013B4B6027E7079C8C25AD00089EA6
:103BD000631900225A609A19039F143205920A222F
:103BE0007A43119C109E0B9DA2180392AA190C3ABD
:103BF0000492089A089F6C3252009A1804320F926D
:103C0000089A8C20743252009B18083310930C23AE
:103C10007B438000079C1B18E3180993089F01371A
:103C200000D1CCE20E9E0E9D0A3E0027F35F0E3DB2
:103C30000B950A96059C002B00D144E223780C9A40
:103C40000133DBB259B2063291420DDC23700FE032
:103C5000140400200C040020880B00208C0B002092
:103C60002F030000102700000C9B059D04332B70D0
:103C7000059E0023F356012B09D1069F039B3A882A
:103C80000A3B049C1A80039B2288083B1A80059EED
:103C900000257557012D65DDA81C032106F092FF54
:103CA000039CCFB212970A3C022D45D1924B039D43
:103CB0001868924B0021625E19680368083D9C46B3
:103CC0000026AB5F4E69096940684910511ACF1749
:103CD0000138C91900027940401A7F280ADD7610A0
:103CE0009E1BF0176746013F36183F024640BF1B38
:103CF0007F2F11DC069E049F0020305E0021795E3C
:103D0000801AC91A05F090F90B2805D92388069C5A
:103D100023802B88049D2B800323013B1CD3099F08
:103D2000069E5A00BA183088111C5A31049C08802B
:103D3000218860321180F0E7089D06236B43079EBF
:103D4000C91822886E4B49007118CA52039B083B60
:103D50001A88A4239B00CA52069F049C3F8824888B
:103D600019971894674B1B681A1C9C32117801290B
:103D700023D19D331B78089D9D421EDA0D9BFE3397
:103D80001B88002B19D10D9BE6331B78002B14D117
:103D9000D4216943594B059E1B688831591800236B
:103DA000F3560092584A0B981268383212780192F2
:103DB000039A0A3A00F0F0FC6CE1059F00257D575C
:103DC000012D00DC66E1032D00DC3EE1089C0626A7
:103DD0006643129F4A48BC19079F64003C19205A49
:103DE000032111901298043006F0ECFE8919490065
:103DF000A42379189B00E05A414ACB5A8F5A149059
:103E00009C46042D16D1039B069D0A3B0020285E8C
:103E100000215B5E049DC01A039BC2178018083BFB
:103E2000504000215B5E0022AA5ED31ADA179B186D
:103E3000534013E0069D0020285E0F9D0023EB5E9B
:103E4000049DC01A0022AA5E109DC1170023EB5EDC
:103E50004018D31A4840D9175B184B400899079D62
:103E60002A4AC0186B189B181978274A002906D0CF
:103E700011685A310988884208DC002105E0116880
:103E80005C310988884201DB012119701B78002B05
:103E90003ED112688021131C5832128856331B8879
:103EA00000924A0004F05CF8154F069D061C0021A4
:103EB000695EE05F049F0B1ADD175A196A400025FE
:103EC0007D5FA427BF009446E25FAD1AEA17AD18E4
:103ED000554065442B1C321C05F046FF069B321CE6
:103EE0001880E05F049C2B1C0021615E05F03CFF04
:103EF000049D288085E0C0460C04002014040020A6
:103F00008A0200008C0B0020880B002002030000B6
:103F1000119C149DA1B2CF1B3FB2FB0FDF197F1084
:103F2000AAB215976746D31B1BB2069CDD0FEB1890
:103F30000025645F049F5B100B94159C1693002072
:103F40003F5E0B190B9D169C17971BB2EB1A1219AB
:103F5000179DDF1712B2DB19AA1A7B40D717D219A7
:103F60007A409B180024802B01DD1C1C803C129899
:103F70000321053006F026FE924B119A1F68079D1B
:103F800089193B1C533349001E78691810B25D78BB
:103F90008D4A139B58438B5E7343C0180B9B6B4336
:103FA000C0183B1C52331A785537104111901498A1
:103FB0003B7807B213984743A4208000095E4E4324
:103FC000BE19179F16997D437519159E5943734362
:103FD000119F1141134115418022F8186D18231CBF
:103FE0000B99D20005F0C0FE069E049F308080220F
:103FF000231C0021795E281CD20005F0B5FE049C2C
:104000002080039B0A9E063B0021715E0025585FBD
:104010006C4D431A2F68DC171B1963403C22BA5EB3
:1040200005F0A2FE0A9E039B0E9C3080043B083CD8
:10403000188821882B683C27DA5F431ADD175B1943
:104040006B4005F091FE208024E040230D9EFF335D
:10405000F25C039B0A3B002A08D01B88069F049C45
:104060003B80039B083B1B88238013E0069D0026B2
:104070009B5F0022AA5E069FD3185B103B80039BC8
:10408000049C083B0022A25E00255B5F049ED318BF
:104090005B103380059F0022BA560C9CA24200DCC4
:1040A00088E00A9D0023EB5E002B66DD039B063B48
:1040B00000269B5F002B60DD199C0F9F189E109DB2
:1040C0003C802E8059E00022A2560C9DAA4230DD91
:1040D0000399063900268A5F002A32D0079F8C2078
:1040E0008000089D3A185419A07F0130C0B2A07713
:1040F000344C40B224683A342478A04202DD059E54
:1041000033701EE0039B069F0A3B1B88049C3B8088
:10411000039B0A9D083B1B8823800B882B80039BF5
:10412000043B19880E9B083B198053680133536088
:1041300007E0079F089C254D059E3A1952193370D8
:104140001370089E059F013E039C069D08960E9ED7
:10415000013F0A3C0E3D0E3E05970394049F0F9CC1
:1041600006950E96109D099E0E3F023C023D0C3EA8
:1041700004970F941095099650E5079C8C25AD0087
:1041800063195968013159600E4B1B6838331B782D
:104190009A4201DA059F3B709F230D9C00225B0031
:1041A000E254079D8C26B600089FAB19DB1900224C
:1041B0009A77C6E701230A9E5B423380F1E71BB082
:1041C000F0BDC046880B00208A02000002030000F8
:1041D00008B5FFF7B3FB08BDF0B591B006900891A4
:1041E0000B920D9300244C4B1B68DB6A9C4200DB56
:1041F0008FE0069F2301FB1808201B5E002B00D1D7
:1042000085E0089FA300FB180327DF5709979B78D9
:10421000013F5BB207930597099F059801370A97FD
:10422000B84274DC079E013E079B01339E426BDC63
:10423000394B059A1968013288680B9F4243531C19
:104240009B19FD5C0490013D5CD3C96A8D4259DA2B
:10425000AC4257D03149169F5B000868DB5B011CFC
:104260000C93FF31497B089F8C46A300DB5F6746B8
:104270002B49002F0BD03E27BC46FF27BC44674686
:10428000C05D002803D10968498E490801E009682A
:10429000498E59430C988911834233DC079FD21908
:1042A0000132169F5200D35B99422BDA0A9B049885
:1042B0004343F31801335B00DB5B994222DAA542EA
:1042C00002DB2B1C251C1C1C069A21010FAF511868
:1042D0000A310422381C06F041FB069B29015918BB
:1042E000381C0A3104F0B8FA00970B9F231C019781
:1042F0000D9F06980297169F089903972A1C04F0B1
:10430000C9FA2C1C02368FE7059F023783E7013478
:1043100069E711B0F0BDC0460C0400200000002089
:10432000880B0020F0B5A24B93B00B9200221A80AC
:10433000A04B11901B6807261A7B0C1C0896062AB6
:1043400000D808929C4A126880321278002A05D15F
:104350001F7A07970A27DE5F069606E0974B1B68D1
:104360001E7A07960A201F5E0697954D95492B6881
:104370000B9F1A685E680A709A6804238A7001327B
:104380009200CB70BA18512302204E700B7103F0CB
:10439000F9FC884900230968A21D04918649D37756
:1043A0000232D3777F26621D0968D6772D68E21D19
:1043B000D6770E9184496A680968013AD2B20991A8
:1043C00082490D922A680968013A52B20F91059309
:1043D0000093002A00DAB2E00D98530041B20A932C
:1043E000002900DAA9E0AE68571C7743049B013727
:1043F0007F18BE0001971B780B9FF059002B16D039
:104400003E230E9EFF33F65C012E05D12E68099FD8
:104410004E43BF18BE5D04E06E68099B56435B18AF
:104420009E5D331C43430F9E3669734318136B68BC
:10443000189F5343CB189B00DE59330C1B1A01986D
:10444000119E4700BB539F1D04DA594E3788013730
:1044500037805DE0002B5BDB04980E268657B34265
:1044600015DB27689E1BBE19266066690E2701367C
:104470006661C07B049E40B28446F757606863451E
:1044800001DCDF1B01E06646F71BC7196760E768C0
:10449000BB4204DDCEB2D7B210960C97E360089E03
:1044A000B3421BDB261C08361F27F7578F4200DA62
:1044B000F177E61D1F27F7578F4200DDF177A61D24
:1044C0001F27F757974200DAF277661D1F27F75725
:1044D000974200DDF277059F013705971A9E4F003E
:1044E000F65B98B20197B446844402901A9F0198F3
:1044F00066463E520A98199F199E3F5A0298BC463A
:1045000084440A9F6046F053009EF618009612E01D
:10451000049F1026BE57B34206DCA0689E1B861976
:10452000A660A6690136A6612669B34200DA236156
:10453000009FFF1A0097013952E7013A49E7204BE3
:1045400000981B680125D96806F0E6FA20497C230B
:104550005B42221CCB70E06176231C32281C0B715D
:104560004D7003F00FFC059EA21D26621F21631DE6
:1045700051561F229A56154B1B68914201DB1D7341
:1045800001E000221A73109F0C9E231C28335E70DA
:104590001F70E768079E0120B74205DA2369069F6E
:1045A000D80FFA179F425041C0B213B0F0BDC046B9
:1045B000300400207C0B002000000020840B002031
:1045C0000C04002014050020800B002010040020A3
:1045D000B80100200B4B09681A683E23FF33D35CF7
:1045E000094A1268507B48438011002B01D1137B8C
:1045F00004E0012B05D1054B1B68DB79984200DAFA
:10460000181C7047000000207C0B0020840B002049
:10461000F0B595B00C1C1E1C0B92069003F0F2FC3A
:104620005A4F08903A68032151562020411A02201F
:1046300010564900091A4910554DC9B205912B6809
:10464000907A19781B790090D27A0598019202909D
:1046500072681A9805F09CFF38682B687268067AB1
:1046600019791B780096407A059E019002961B9856
:1046700005F08EFF002118220EA806F0B1F9A368FC
:104680007F22180A190C00260D932272A27240B2E2
:104690005AB249B21B162F686672E67205900791EE
:1046A000099304960598824252DC1A9D5300EB1838
:1046B0000A93079B099E501CB34247DCB9680B9DC7
:1046C0004143591801314E00755F5900AC461B9D9E
:1046D000664669180989761A0A99B4460E896546AC
:1046E000A91B089E367BB14213DD0B2565579D4201
:1046F00000DAE3720A2565579D4200DDA3720925A1
:104700006557954200DA627208256557954200DDCB
:104710002272CD1F072D08D80EADED5C0126AC46E8
:10472000B44466460EADEE5401E0002904DD049D5C
:104730008D4202DA049100E00021BE68069D7043BC
:1047400018180130800041510133B3E7021CA9E77A
:104750000DA80EA9069A00F0C1FB0D4E0D49336855
:10476000049D5A68256018684A709A68069D8A7088
:104770007C2301325B4292000870CB70AA1883231D
:1047800005200B7103F0FEFA15B0F0BD900B002070
:104790000C04002014050020F0B5E5B014926AAABC
:1047A00020CA0D901278281C19920A1C0491D0324C
:1047B000483011780078884201D301311170CE4A17
:1047C0000D9F16680022BA5EB06F0D9D4243121411
:1047D00017920222AA5EF76F7A4312141892012BE5
:1047E00039D1049A0021D1321170049AD032137059
:1047F000049B179D189F002201311D60DF605A60E5
:104800001A619A605A619A61DA611A625A629A620E
:10481000DA6234330429ECD16A9B049D9A8C2233EA
:104820002A63DA886A6659892A1C98321160D98904
:1048300051631A88291CAA619A880431EA64AA651E
:104840001A89CA6788310A608A609B892A1CB43237
:104850001360D36053616A9D002402351A941B943F
:104860000395039DA20000235219181C1A255D43CD
:10487000049FD15A7D192D6B023369434018082BD0
:10488000F4D1FA21890006F0F9F8682109196A467D
:1048900002348852082CE4D11CA80021102206F012
:1048A0009FF8002534236B43049F20A8FB181B6B43
:1048B000039F0693EB00FB182F0107933F1800247A
:1048C0000799069A085B68231B1950436A46995A50
:1048D00006F0D4F863001CAA9958F850023408185E
:1048E0009850082CECD10135042DDBD1D02230A812
:1048F000002106F075F8149DB76F0023EB5E149D40
:104900007B431B1430930223EB5EF26F012653436B
:104910001B1433933DAC21AF03960023049A0793F5
:1049200006931E1C181CF95815684D434019D5688C
:104930004D43761955684D43069949190691FD581E
:10494000116910336943079D34326D180795402B68
:10495000E9D1039D1CAAAB009D58291C06F0DCF888
:10496000291C2060301C06F0D7F8291CE06006984E
:1049700006F0D2F8291C6060079806F0CDF8039E77
:104980002061012E19D00023049A0593181CFE58AB
:104990009168103371434018516934327143059E58
:1049A00076180596402BF2D1291C06F0B5F8291C83
:1049B000A060059806F0B0F86061039D34340135BD
:1049C00003950437042DA8D138AC0025A80020A9F0
:1049D00084460A1C624400230992049A0A930893AD
:1049E000079306930393181C099ED769F15896699B
:1049F0004F434E438019039E1033F619176A0396EE
:104A00004F43069EF619576A06964F43079EF619BE
:104A1000976A07964F43089EF619D76A0896794316
:104A20000A9E343276180A96402BDDD167461CABBD
:104A3000FE58271C311C06F06FF8083F3860002D27
:104A40001BD0311C039806F067F8271F3860311C13
:104A5000079806F061F86060012D0ED0311C0698B1
:104A600006F05AF8311C2060089806F055F8311C01
:104A7000A0600A9806F050F8E06001353434042D47
:104A8000A4D1049B002130AA8D585218566897680B
:104A9000D0681D605E60156956699F609769D8602F
:104AA0001D615E619F61D069156A566A976AD26A14
:104AB0003431D8611D625E629F62DA623433D0297C
:104AC000E1D1049C0026251C0835069507966A9BB3
:104AD000079F3233022F0BD0032F0FD0012F03D0AB
:104AE0001D789A88DB880CE05D781A895B8908E07C
:104AF0009D789A89DB8904E014040020DD781A8A05
:104B00005B8A9C46012D60D0002D4DD0022D79D1BD
:104B1000069E6068366827680111C9198019069FCA
:104B20000F9020697F68089673116669CB18011190
:104B3000C91911937311CB181293A36A80190A969D
:104B4000DE0F1090F618E06A76100596C10F266AFF
:104B500009184910F7187F180397A069E7693E18EC
:104B6000206AC70F3F187F10F719E669606ABF19FE
:104B70003F1805983E180398C70F3F187F10606ACA
:104B8000F719E669361805983618206A3618F018AD
:104B9000666A40180590F118E06AC91809181B18D0
:104BA0000E918618139339E0069F26687F68A069E6
:104BB000119612972E1C171813950E9503950595AF
:104BC0000A95109508950F9528E0666827683311B7
:104BD000DB19069F0F9626697F6811933311DB1945
:104BE000E0691293A369616A4700FF1840181096A4
:104BF0007F180026891805900E91139603960A9641
:104C000008960BE0002613960E9603960596371C21
:104C10000A961096129608960F9611961298189B5F
:104C2000119A1B1A0B93FB171B0F1799DB191B11FA
:104C30006344891A0991B801191C0C9305F06CFFA3
:104C4000059A0C991590900105F066FF039B0C994D
:104C50001690980105F060FF1199099B8A02159939
:104C60004B43D3189B1223600F9B16999A01099B03
:104C70004B43D3181B019B126360089B06999A0152
:104C8000099B4343D3181B019B120B60129B159980
:104C90009A020B9B4B43D318069A9B125360109BAE
:104CA00016999A010B9B4B43D3181B019B1223614E
:104CB0000A9B9A010B9B4343D3181B019B12636110
:104CC00080231599DB00591A0B1C7B43DA17920DD0
:104CD000D3189B128C46A361002D05D1E561256296
:104CE0006562A562E56234E0059B4B43DA17920DDD
:104CF000D3189B12E361169B059A5F427A430E9B81
:104D000099025218D3179B0D9A1892126262022DC3
:104D10001BD1039D61464D43EB179B0D5D19AD12F1
:104D20002562039DB6026F43139DAB02FF18FB176C
:104D30009B0DDF19BF12A762039F7843301AC61775
:104D4000B60D30188012E06203E000232362A362F4
:104D5000E362099A0B9B52435B43D318584A934230
:104D600005DC642058430C9905F0D6FE00E0554858
:104D7000554B4610554D01209E421BDC301C291C12
:104D800005F0CAFE291C421C5143771AFB17FF1875
:104D90005F404F4B4000C05A520078434D4FC919F5
:104DA000761AF11776184E40D15A4E43291C8019B5
:104DB00005F0B2FE68430C9905F0AEFE079F069D14
:104DC000BE0030AB01373435F050079734340695C8
:104DD000042F00D07BE60024251C682661003619CC
:104DE00030AA6F46F35B8858049E58431A236343E6
:104DF000FA21F3181863890005F040FE02344519C2
:104E0000082CEAD10024049F291C3E19306B05F0C0
:104E100035FE002801D0306301E0012333633434D0
:104E2000D02CF0D10024049B251C211C201C1A6BC3
:104E30001E68013156433018DE6814195643343366
:104E400075190429F3D1211C05F066FE211C061CEE
:104E5000281C05F061FE049D199A2B1CD03319788B
:104E600001322C6B013391420CDD1A78002A15D1E6
:104E70006A9A463295788D4210D3128894420DDB9F
:104E8000012200E0002200211970012A08D1149E9D
:104E90000D9F33883B8073887B800EE001221A705F
:104EA0000D4B0D9F1B681A1D0833D26FDB6F5643E5
:104EB0005843361400143E80788065B0F0BDC0467B
:104EC00014AE4701FFFFFF7F6F11010010270000A4
:104ED0007EAB0000F0D8FFFF14040020F0B54D4B6E
:104EE00091B000AF7962196884464B680868BB636B
:104EF00043430733DB08DB006C46E41AA5466E46E5
:104F00003863FE626046C078634640B238629B7880
:104F10005BB2BB621E1C3D6AAE4254DC7C6AA35D80
:104F2000082B4ED96546012028560023EB56F86120
:104F3000B86BFC6A5843301820187863FC69A342A8
:104F40003FDC0624002B09D0886858438019800074
:104F5000145810184568806864192418886801334B
:104F60007861584380198000155810186419F8604A
:104F70003D6B8068013DB86020185C1EAC4211D0CA
:104F80007C695D1C6543AD19AD00BD615559401983
:104F9000F863B869FC6B15186868AD682418FC6381
:104FA000641900E0841DF86845680320684304190B
:104FB0000D2044437D6BB86B24122C702D187D633B
:104FC000BCE70136A7E7BB6A64460320205683424C
:104FD0001DDC7E6AF05C082817D964460020205644
:104FE000BC6BFD6A44431C192C1966460125755794
:104FF000A8420ADC8D68013045435D1926780135E9
:10500000AD00AE50BE6BA419EFE70133DCE7BD463F
:1050100011B0F0BD0C040020F0B5304F85B0019008
:1050200038680A1C031CFF3302909E7F0B1C14334C
:1050300003930023022E2AD1029CFF34E47F3442E2
:1050400025D01478012C07D10D7D651BE8172D188C
:105050004540072D0DD108E0052C12D10D7D641BB4
:10506000E01724184440012C07D1541A0E2C12DDED
:1050700013E05578002D06D00DE05478002C0CD0AC
:1050800009E0022C07D0033C012C06D803E010787D
:105090000C7DA04201D00133DBB2039D0132AA4254
:1050A000C8D10022022B15D80198012303700B7D73
:1050B000591EC9B2062901D8094A525C3868FF3026
:1050C000817F022906D1C07F084203D0063B022B14
:1050D00000D81A22101C05B0F0BDC0460000002008
:1050E0008EAB0000014B18607047C046700B00206B
:1050F000014B18687047C046700B0020014B1860C8
:105100007047C0466C0B0020014B18687047C046C2
:105110006C0B0020014B18607047C046680B0020E4
:10512000014B18687047C046680B0020014B186897
:105130007047C046B00100200B4B70B519680B6872
:105140005D1E0FD34A68013A0AD38E68541C5E4331
:10515000A419064EA400A4192668C6402660F2E7EA
:105160002B1CEDE770BDC0460C0400200040005031
:105170008D23013B002B01D0C046FAE7044B1022DF
:105180001B78DBB21807C00F134018437047C046A6
:105190002B0000500F4BF7B518261E700E4BA027A2
:1051A0001E70FFF7E5FFFF050B4B01AC00252C3708
:1051B00060701D703E70FFF7DBFF064B20703D7086
:1051C0001D7023786278181C504040001340034340
:1051D000D8B2FEBD2A0000502D00005010B50D4B76
:1051E00000201B78AA2B12D10B4B1C780B4B64B2FE
:1051F00018780B4B40B219780A4B20181A780A4BD2
:1052000049B21B7840188018C01A43425841C0B2B6
:1052100010BDC046500002005100020052000200C2
:105220005300020054000200550002008023DB02FC
:105230000022188059809A80C046024B188880B29C
:105240007047C04606000400154BC02292009858D3
:105250001449014099509958FF208143402001434F
:1052600099509858104901408020000401439950FA
:10527000985880210002000A090601439950022231
:105280001A6001221A60082104221A601960FC3396
:1052900000215960054B19690A431A617047C046DD
:1052A00000E100E0FF00FFFFFFFF00FF00ED00E076
:1052B00013B5094A042413780021DBB21C43019181
:1052C0000198F421FF31884205DC1370C046147048
:1052D00001990131F3E713BD0D00005013B5002211
:1052E0000192A022D205D06BC021C9000143D16335
:1052F00001AB187803218843012108430C24A04303
:10530000042420433024A043102420433F24204081
:1053100040242043187098780F24A043072420438A
:105320009870D8780143D970019B936113BD000038
:105330000122A023DB0510400206034998690840BA
:10534000104398617047C046FFFFFFFE82B0002205
:10535000019201301F2201AB1040C9B21870481CE5
:10536000023110400A4092005870DA70019AA0236E
:10537000DB05DA61196A024A0A401A6202B0704714
:10538000FFCFFFFF0002064B000A013800225860E1
:105390009A6005221A60C0461A68D103FCD570478E
:1053A00010E000E0F0B5534F85B03B681A1C303276
:1053B00015780232196B127833331E780F231407D5
:1053C000994312092D0701922D0F0B1C80222B43AC
:1053D00052001343484A0395484D1340484A2B4016
:1053E00048491340240F0B400199220413430A0536
:1053F00045493607360F0B40009613433206434E9D
:10540000029433401343424AA024E4051340E3606E
:10541000FFF74EFF3B68E26831331B781540DB062F
:105420009B0FDB021D43E560E26880239B00134372
:10543000E360E26880239B011343E360029C039DC9
:10544000FFF7CCFE002813D0324F882039781E3465
:10545000C9B205F061FB39784443C9B2882005F030
:105460005BFB0F3545431E3C00230F3D9C4203DB95
:10547000231E0F2B00DD0F230F22954200DD151C8C
:10548000A024E4051F491A40E36812040B401343AB
:10549000E360EB43E268DB171D400F239A431D4096
:1054A0001543E560E368F022934380221343E360F1
:1054B000E368154A18481340E360E3683340E3604B
:1054C000FFF760FFE26880235B051343E360009908
:1054D000E2680B0616401E43E6601048FFF752FFD5
:1054E000019B09491A05E3680B401343E36005B0CB
:1054F000F0BDC0466C0B0020FFF9FFFFFFE7FFFF88
:10550000FFDFFFFFFFFFF0FFFFFF0FFFFFFFFFF0D9
:10551000FFFFFFEF54000200FF0F0000FF6F0000CD
:10552000064A074B12680120D03212681978904061
:10553000021C0A43D2B21A707047C046B001002064
:10554000290000500549064B09681A78D0310968CE
:105550000120884082431A707047C046B001002085
:1055600029000050044B1878044B1B68D0331B688B
:10557000184101231840704729000050B001002055
:10558000044B82B0019001AA188092789A7002B000
:105590007047C0462400005007B500F061FD064B7F
:1055A000019001AA188092789A70044B00221A7018
:1055B000034B0122DA7707BD240000502C0B00209A
:1055C00008000050034B00221A70034B0122DA77C7
:1055D0007047C0462C0B00200800005072B6084BE4
:1055E0001B5C002B03D1C04662B630BFF6E762B643
:1055F000A023DB059968034A0A409A607047C046B9
:105600002C0B0020FFFFF9FF72B6074B1B5C002B31
:1056100002D1C04662B6F7E762B6A023DB059968FF
:10562000024A0A409A6070472C0B0020FFFFF9FFE6
:10563000A023DB055A680121120E58689143034AE2
:10564000090602400A435A607047C046FFFFFFFE4A
:1056500008B5074B1B681A1C3732127838331B7891
:10566000520001325043994005F056FA08BDC04639
:105670006C0B002008B5044B1B683A3319784900BD
:105680000131FFF7E5FF08BD6C0B002008B5A02332
:105690000120DB055870FFF7A1FFFFF7C9FF08BD28
:1056A000F7B5A026041CF605042808D005280ED15D
:1056B0005A4B1B681A1C8C321768903305E0574B05
:1056C0001B681A1C9432176898331B6821E0544BEE
:1056D0001B685F6A9B6A7361FAF75CFEFF300378B0
:1056E000002B17D005F016F905F04CF881787F22D1
:1056F00011408904019171690B1C4A490B400199C1
:1057000019437161C178474B0A40716992040B409B
:1057100013437361A023DB051F611E691F231E4015
:10572000FFF75CFD00280AD03F4B8820197804362B
:10573000C9B205F0F1F946430023043E03D4331EF9
:105740001F2B00DD1F23A022D20510691F210B4053
:10575000884303431361032C34D005DC012C2DD086
:1057600013DC002C11D030E0052C0AD005DB062C10
:105770002BD12A4B1D68A23527E0284B1D689C358C
:1057800023E0264B1D689F351FE0FAF703FE031C3C
:10579000E6331B78002B03D0204B1D683B3514E00B
:1057A000FF300378002B05D005F0B4F804F0EAFFD1
:1057B000051D0AE01A4B1D68363506E0184B1D68BA
:1057C000393502E0164B1D683C35A023DB055969CD
:1057D00028783F22104091430143596168781F2186
:1057E0005D6908401149C0022940014359611049CF
:1057F000640009680C19211C82310878596810402E
:105800009143014359608334217858680A4011025A
:10581000084A02400A435A60F7BDC046700B002098
:105820006C0B0020FFFF03FE54000200FF07FFFF88
:10583000B0010020FFC0FFFF244BF7B51A68244BCE
:105840001B6839331B785B069B0E0193131C3133A5
:10585000197800238D005519581E5B18002B27D08E
:1058600053181B1832331B788024D3185E78A0237A
:10587000DB055F68E4033C435C60019CB6062404DE
:1058800000945F68B60EBC46124F64462740009CE9
:1058900027435F60C046243676008400F65A2C19F0
:1058A000B03426605E680C4C34405C60031CD3E767
:1058B000131C313309491B780F204B700423CB7024
:1058C000B023D2180B7102F05DFAF7BDB0010020D1
:1058D0006C0B0020FFFFC0FFFFFFBFFFB8010020DF
:1058E000F7B5FFF7A9FF124B00241D682B1C3133BD
:1058F0001E78731C9B005B420093B300EB1801936E
:10590000009B043C9C4208D0019B01211F19B03729
:105910003868FFF79DFE3860F2E706490423CB7034
:10592000B023EA180F204E700B7102F02BFAF7BD6E
:10593000B0010020B8010020044B00225A70A023BF
:10594000DB055A7001221A707047C0462C0B0020EC
:10595000A023DB059968064A0A40802189020A4390
:105960009A60044A0021917001229A707047C046E3
:10597000FFFFF9FF2C0B0020024B1B68A8331868AF
:105980007047C046B0010020024B1B68A833186066
:105990007047C046B0010020A023DB059868C0B264
:1059A000704730B5A023DB059B68DBB283420ED085
:1059B00001DA013300E0013BA022D2059568FF2106
:1059C0001C1C8D430C40291C21439160EEE730BD27
:1059D00008B50020FFF702FE08BD0000034B1B685E
:1059E00037331878400001307047C0466C0B0020F8
:1059F000024B1B68383318787047C0466C0B002088
:105A000000487047001000500048704700200050C8
:105A10000048704700400050064A074B12681B6858
:105A20007D3210789B6801385843044B8000C018C1
:105A30007047C046B00100200C0400200040005018
:105A4000054B1A68054B90681B6879331B785843DF
:105A5000034B8000C01870470C040020B0010020E8
:105A600004400050F0B585B000AFFAF793FC5D4BF1
:105A70001988031CE4331A888A181A805A4B1B6849
:105A80001A78BB6053B2042B24D1584B1B689E3349
:105A90001B78FB60FFF7C0FF554B02221968531EAD
:105AA0009C4600D29AE04B68013B11D38C6854436A
:105AB0000134E518AD007D60BD68EE183A363678E1
:105AC000FD68A419A4002458EC407D682C50EBE735
:105AD0006246E4E7052B23D1444B1B68A1331B78B6
